:100000000C943F050C945C050C945C050C94FB234C
:100010000C945C050C945C050C945C050C945C05DC
:100020000C945C050C945C050C94B42B0C94882CFB
:100030000C943C260C945C050C945C050C945C05BB
:100040000C945C050C945C050C945C050C945C05AC
:100050000C945C050C94DF260C945C050C945C05F8
:100060000C945C050C945C050C945C050C945C058C
:100070000C945C050C945C050C945C050C945C057C
:100080000C945C050C945C050C945C050C945C056C
:100090000C945C050C945C050C945C050C945C055C
:1000A0000C945C050C945C050C945C058081828347
:1000B0008485868788898A8B8C8D8E8F9091929388
:1000C00094A0A1A2A3A4A5A6A7A8A9AAABACADAED3
:1000D000AFB0B1B2B3B4C0C1C2C3C4C5C6C7C8C94A
:1000E000CACBCCCDCECFD0D1D2D3D400556E64659F
:1000F00066696E65640041646A757374004C6F775D
:1001000065720052616973650044656661756C745F
:10011000004C617965723A200029001E001F002002
:1001200000210022002B0014001A000800150017FF
:1001300000E00004001600070009000A00E1001DAD
:10014000001B0006001900050000002152E300E238
:10015000002C002F00350027002600250024002356
:10016000002D00130012000C0018001C0034003396
:10017000000F000E000D000B00E5003800370036C0
:10018000001000110000002252E7002A0028003071
:100190000001000100010001000100010001001E3A
:1001A000021F0220022102220201001E001F002065
:1001B00000210022000100010001000100010001F6
:1001C0000000000100010001000100010001000128
:1001D00000010001000100010001002702260225A4
:1001E0000224022302010027002600250024002308
:1001F00000010030022F022E023500310200000102
:1002000000010001000100010001000100010001E6
:1002100000010001003A003B003C003D003E003F71
:1002200000010001000100010001000100010001C6
:1002300000010001000100010000000100010001B7
:1002400000010001000100010001000100010001A6
:100250000045004400430042004100400000004FC0
:100260000052005100500000000100310030002F0A
:10027000002E002E0200000100010001000100011B
:10028000000000000000000000000000000000006E
:10029000000000000000000000000000000000005E
:1002A000000000000000000000000000000000004E
:1002B000000000010001000100010000000000003A
:1002C000000000000000000000000000000000002E
:1002D000000000000000000000000000000000001E
:1002E000000000000000000000000000000000010D
:1002F00000010001000100000000AE00AF00DA02C2
:1003000081FFD9F1DB20A4A62EAF00A0C000A1C8B8
:1003100000AED580A81FD300408D1420000000003F
:100320000000003E5B4F5B3E003E6B4F6B3E001C8F
:100330003E7C3E1C00183C7E3C18001C577D571C20
:10034000001C5E7F5E1C0000183C180000FFE7C325
:10035000E7FF00001824180000FFE7DBE7FF00308C
:10036000483A060E00262979292600407F05050710
:1003700000407F05253F005A3CE73C5A007F3E1C69
:100380001C0800081C1C3E7F0014227F2214005F02
:100390005F005F5F0006097F017F00006689956A44
:1003A0000060606060600094A2FFA2940008047E78
:1003B00004080010207E20100008082A1C080008ED
:1003C0001C2A0808001E10101010000C1E0C1E0C19
:1003D0000030383E383000060E3E0E0600000000A9
:1003E00000000000005F000000000700070000148C
:1003F0007F147F1400242A7F2A12002313086462CA
:1004000000364956205000000807030000001C2257
:100410004100000041221C00002A1C7F1C2A000809
:10042000083E08080000807030000008080808082E
:10043000000000606000002010080402003E5149E6
:10044000453E0000427F4000007249494946002174
:1004500041494D33001814127F1000274545453996
:10046000003C4A49493100412111090700364949F8
:10047000493600464949291E0000001400000000CA
:100480004034000000000814224100141414141415
:10049000000041221408000201590906003E415D96
:1004A000594E007C1211127C007F49494936003EAA
:1004B00041414122007F4141413E007F494949413C
:1004C000007F09090901003E41415173007F08087E
:1004D000087F0000417F4100002040413F01007F34
:1004E00008142241007F40404040007F021C027FF0
:1004F000007F0408107F003E4141413E007F090912
:100500000906003E4151215E007F09192946002657
:10051000494949320003017F0103003F4040403F09
:10052000001F2040201F003F4038403F0063140858
:100530001463000304780403006159494D4300002B
:100540007F41414100020408102000004141417FE9
:100550000004020102040040404040400000030744
:100560000800002054547840007F28444438003864
:100570004444442800384444287F003854545418D4
:100580000000087E0902001824241C78007F08045B
:1005900004780000447D4000002040403D00007F82
:1005A000102844000000417F4000007C047804785B
:1005B000007C08040478003844444438007C182443
:1005C000241800182424187C007C0804040800481F
:1005D000545454240004043F4424003C4040207CF4
:1005E000001C2040201C003C4030403C00442810AF
:1005F0002844004C9090907C004464544C4400008B
:100600000836410000000077000000004136080075
:10061000000201020402003C2623263C00000000E8
:10062000000080808080000000000080E070180CD6
:100630001830E080000010F8901030783010B8FCCE
:100640003810000000000000F8FCF8000000000076
:1006500000000000000000001C9C1C00000000F8CE
:10066000FCF80000000000001CFCF8C000000000C6
:10067000000080E0F87C1C000000F0FCFCFC1C1C6E
:100680001C1C1C1C1C1C000000000000C0F0F838E2
:100690001C1C1C1C1C1C3CF8F0E000E0F0F0F0E01E
:1006A000ECEEF7F37020007C7C7C7E007E7E7E7F0B
:1006B0007F7F000080C0E07E5B4F5BFEC00000C01B
:1006C00000DCD7DEDEDED7DC00C00000000000006A
:1006D000000000000000000000000000000000001A
:1006E00000000FBCE0818181838382870C18306019
:1006F000C000001FFE90B9FFBB91983C1811133F3A
:100700001100000000000000FFFFFF0000000000DB
:100710000000000000000000FFFFFF00000000FFDD
:10072000FFFF0000000000000000030F7FF8E080E2
:10073000F0FC3F0F0100000000003F3F3F1C1C1C6D
:100740001C1C3C78F8F0E08000000000C3E7FF7E4E
:100750003C3878787070F8FFDF87000F1F3F7F7F8D
:100760007F7F7F3F1E0C001F1F1F3F003F3F3F7FCB
:100770007F7F00307B7F7830202030787F3B000304
:10078000000F7F0F0F0F7F0F00030000000000001D
:1007900000000000000000000000000000183C24E1
:1007A000666341C18180808080808081C1416238E0
:1007B0006C4CC68181808080808081C14362361C00
:1007C0001800000000000000FFFFFFC0C0C0C0C054
:1007D000C0C0C0C0800000007FFF7F000000007F1D
:1007E000FFFFC080000000E0E0C0C0C0E0F97F1F54
:1007F0000700000000000000000070F0E0E0C0C052
:10080000C0C0E0F0F87F3F0F0000000F3F7FF9E02D
:10081000E0C0C0C0C0C0E0F97F3F1F000000000082
:1008200000000000000000000000000000000000C8
:1008300000000000000000000000000000000000B8
:1008400000000000000000000000000000000000A8
:100850000000000000000000000000000000000098
:1008600000000000002A2B2800000000000000000B
:10087000000000000000000029000000002C1E34D1
:1008800020212224342627252E362D3738271E1FD7
:10089000202122232425263333362E37381F040502
:1008A000060708090A0B0C0D0E0F10111213141570
:1008B000161718191A1B1C1D2F3130232D3504054E
:1008C000060708090A0B0C0D0E0F10111213141550
:1008D000161718191A1B1C1D2F3130354C0000003B
:1008E0000000000000000000000000000000000008
:1008F00000000000000000000000000000000000F8
:10090000007E0F00D4FFFFFFC7000000780E034CED
:100910000069006C00790035003800000010036C9D
:100920000069006C00690075006D00730000000430
:1009300003090409025B00030100A0FA0904000096
:1009400001030101000921110100012240000705F6
:1009500081030800010904010002030000000921CD
:100960001101000122220007058203200001070572
:100970000303200001090402000103000000092113
:1009800011010001227B00070584032000011201F0
:10099000000200000008D8042DEB00010102000154
:1009A0000660FF0961A1010962150026FF0095207C
:1009B000750881020963150026FF009520750891CE
:1009C00002C005010902A10185020901A100050972
:1009D00019012908150025019508750181020501F5
:1009E000093009311581257F95027508810609387E
:1009F0001581257F950175088106050C0A380215B9
:100A000081257F950175088106C0C005010980A177
:100A100001850319012AB700150126B70095017554
:100A2000108100C0050C0901A101850419012AA04B
:100A300002150126A002950175108100C00501096B
:100A400006A101050719E029E7150025019508759C
:100A50000181029501750881010507190029FF151B
:100A60000026FF0095067508810005081901290573
:100A7000950575019102950175039101C00011243E
:100A80001FBECFEFDAE0DEBFCDBF12E0A0E0B1E0E5
:100A9000EAE1F4E602C005900D92AE30B107D9F755
:100AA00025E0AEE0B2E001C01D92A936B207E1F741
:100AB0000E9438170C94B9310C940000CF93C82FC2
:100AC0000E943415811101C0C2E08C2FCF9108958E
:100AD00023E041E062E00E9465060895CF93C0E202
:100AE0008C33910520F4FC01EC5BFE4FC0811F921A
:100AF000CF939F938F93FB0180811F928F9381816E
:100B00001F928F9383E391E09F938F931F9288E1CD
:100B10008F9387E292E09F938F930E94D82E8DB798
:100B20009EB70E960FB6F8949EBF0FBE8DBF8091F4
:100B3000100290911102449761F4109211021092E8
:100B40001002E2E1F2E080E2819392E0E632F907FE
:100B5000D9F78091100290911102FC01EE5EFD4FD9
:100B6000C08301969093110280931002CF91089553
:100B70000E94341560E0882389F181E191E00E94B0
:100B8000D71C80915D020E9413078130F9F0882301
:100B900041F08230B9F08330E9F060E08CEE90E013
:100BA00003C060E089E091E00E94E91C60E087E218
:100BB00092E00E94D11C60E082E192E00E94D11C90
:100BC00080E0089560E083E091E0EECF60E08DEF9B
:100BD00090E0EACF60E086EF90E0E6CF8CEA90E02C
:100BE0000E94D71CEDCFFB01228121110E946E05CE
:100BF00081E0089584E008958430B8F46A30A8F460
:100C0000463098F450E096E0699F400D511D112444
:100C1000FA019CE3899FE00DF11D1124EE0FFF1FE7
:100C2000E75EFE4F85919491089580E090E00895ED
:100C300081E008950E94F305089508950E941D061D
:100C40000895A5E0B0E0E7E2F6E00C94912E498328
:100C50005A833091440289819A81311119C06623E7
:100C600099F0222389F00E94CA0B182F682F8981DE
:100C70009A810E94A60B69817A81812F0E9420129D
:100C80002596E3E00C94AD2E0E94B80B182FF3CFFD
:100C90000E94CA0B69817A81F1CFFC01262F408125
:100CA00051816281738184810E942106089581E0CF
:100CB0000895CF93DF93EC0160E00E944D06BE01E2
:100CC0000E941E06DF91CF910895E1E0F0E0DF0180
:100CD00002C0AA0FBB1F6A95E2F7BD01DF0102C087
:100CE000AA0FBB1F4A95E2F76A2B01C0EE0F2A95A7
:100CF000EAF7962F9823961302C08E2B0895E0955D
:100D00008E230895242F462F682F80915D020E9424
:100D100065060E94080B08950E948E1308950E9494
:100D20009213089508950E949F0A0E9492062FEF41
:100D300084E39CE0215080409040E1F700C0000037
:100D400008950E9493060E94032708950E94930627
:100D50000E94142708950F931F93CF93DF938C0164
:100D600061E00E944D06EC01B8010E942F1A81112A
:100D700006C080E0DF91CF911F910F910895B801D7
:100D8000CE010E941A068823A1F3B801CE010E9469
:100D90002B22882371F3B801CE010E94521E8823B2
:100DA00041F3B801CE010E949D21882311F3F8017F
:100DB0008281882361F0C330FCE7DF07E9F058F453
:100DC000C115ECE7DE07A9F0C130DC47B9F0C80176
:100DD0000E941806CFCFCB358CE7D807A9F0CC35C9
:100DE000ECE7DE0771F0CA35DC4789F70E94B50FE2
:100DF000EECF0E94A106BDCF0E94BD0F0E94A606A5
:100E0000B8CF0E94AB0FE3CF0E94B90FE0CF0E9492
:100E100019260E9444070E94FC1D08950E9448075D
:100E20000E941E260895982F92959F7011F0892F89
:100E300094E0282F2695269511F09E5F822F8695A7
:100E400009F09F5F892F089508950E94240708954F
:100E500081E008950895CF93DF93D82F0E9428074B
:100E6000C82F882319F08D2F0E942A078C2FDF911D
:100E7000CF9108950895CF93C82F0E9425078C2FF6
:100E80000E942B07CF91089580E00E943B070895B0
:100E90000E9421250E943B070895CF930E9421259F
:100EA000C82F80913F028C1779F0C0933F020E94B7
:100EB000A82660934002709341028093420290936F
:100EC00043028C2F0E943B07CF910895ABE0B0E026
:100ED000ECE6F7E00C94922E4F83588769877A8767
:100EE0008B8761110E94F60E1E821D8285E0FE0135
:100EF0003796DE01119601900D928A95E1F78C816B
:100F00009D81892B61F449815A816B817C818D811E
:100F10009E810E941F0E2B96E2E00C94AE2E8981DA
:100F20009A8189238F3F79F3CE0101960E9457065B
:100F30008111E9CFF0CFFC01808191810E94F70BF4
:100F40000895662329F00E94BC170E948F18089507
:100F50000E941618FACFCF93C82F8823B9F08CEFD0
:100F60008C0F813AA8F46C2F8091000190910101BF
:100F70000E94AA25882329F08C2F0E94B60E0E9479
:100F8000170F8C2F0E94AE0E0E94170FCF9108955D
:100F900080E28C0F883048F4C77081E001C0880F70
:100FA000CA95EAF70E94D90EEFCFEBE5EC0FE330DC
:100FB00040F4F0E0EE54FE4F808190E00E944E2518
:100FC000E5CFE8E5EC0FE93150F4F0E0EE0FFF1F5C
:100FD000E058FE4F808191810E947325D7CF83E333
:100FE0008C0F833198F661E08C2F0E94A107CECF41
:100FF000882381F19CEF980F913A28F40E94B60E55
:101000000E94170F089590E2980F983050F487705F
:1010100091E001C0990F8A95EAF7892F0E94DF0EAF
:10102000EFCF9BE5980F933028F490E080E00E948A
:101030004E25089598E5980F993128F490E080E0C6
:101040000E947325089593E3980F933118F460E09C
:101050000E94A10708951F93CF93DF93182FEB01F0
:101060000E94AB07209739F4812F0E94F807DF9187
:10107000CF911F9108958FE99FE00197F1F700C08C
:1010800000002197EFCF70E060E0893311F460E554
:1010900070E00E942B080895882321F00E94D90E49
:1010A0000E94170F0895882321F00E94DF0E0E94EE
:1010B000170F0895B0E0A0E0E0E6F8E00C948B2E66
:1010C0006C01D62FC72FFC011281F580F2949FE0AE
:1010D000F9220E94CF0EE82E8823B9F0E12E1123C9
:1010E000A1F08C2F807F803421F080E28D0F88303A
:1010F000D0F08091390382FF16C082E00E947A0FFF
:101100000E94CF0E91E0E82EE926BC2EB2948FE02B
:10111000B822FBE0FB1508F468C0EB2DF0E0E554C5
:10112000FE4C0C94752EE12CF0CF0C2F0F70C07F6D
:1011300011F00295007F112399F0002359F080E20D
:101140008D0F883010F0D11107C0802F0E94D90E6A
:101150000E94170F8D2F41C0802F0E94E90EF8CFFB
:101160008D2F0E94F807002309F43FC080E28D0F05
:10117000883010F0D11104C0802F0E94DF0E03C010
:10118000802F0E94EF0E0E94170F2FC00C2F0F70A0
:10119000C07FC03211F00295007FDD2381F0D13095
:1011A00009F468C0112309F472C0FF2009F468C073
:1011B000F601858180FFCECF8F70858361C08091DD
:1011C000390382FD33C0112359F0002329F0802F09
:1011D0000E94D90E0E94170F80E00E94AB0705C045
:1011E00080E00E94F8070111C7CFEB2DE850FF0BFC
:1011F000349720F40E9421250E943B07EE2089F0BD
:101200000E94CB0E80FD0DC0F60112820E94C50E19
:101210000E941A0BC6010E945F0A0E94C50E0E941E
:10122000260BCDB7DEB7E9E00C94A72E112389F089
:10123000F11006C00E94F90E802B0E944C08D5CFF9
:1012400021E0F212F7CF0E94F90E802B0E94000FCE
:10125000CCCFF11006C00E940D0F802F0E945308C2
:10126000C4CF31E0F31609F2802F0E9453080E9488
:101270000D0FBBCF112331F085E08F1508F4B5CFEA
:10128000802FDBCF94E09F1508F4AFCFE6CFFF208F
:1012900021F3D93349F4FFEF27EE33E0F15020403A
:1012A0003040E1F700C000008D2F0E94F8079DCF6D
:1012B0008C2F86958695837069F0813009F095CFE3
:1012C0008D2F9C2F9370111102C080E090E00E943E
:1012D00073258BCF8D2F9C2F9370111102C080E04E
:1012E00090E00E944E2581CF612F8D2F0E94A10793
:1012F0007CCF8C2F837079F5111177CF4D2F4295CC
:1013000046954770440F440F8D2F8F70042E01C0F7
:10131000880F0A94EAF72D2F2071D4FF07C02FE021
:1013200030E001C0220F4A95EAF72095C695C69590
:10133000C370822BC23049F058F4C13019F00E94BA
:10134000F90A53CF0E94F30A50CF0E94FF0A4DCFF3
:101350000E94F00A4ACF8695112311F08C2F8170DC
:10136000882309F442CF4D2F429546954770440F8C
:10137000440F8D2F8F70042E01C0880F0A94EAF756
:101380002D2F2071D4FF07C02FE030E001C0220FC5
:101390004A95EAF72095C695C695C370822BC23050
:1013A00049F058F4C13019F00E94450B1ECF0E943D
:1013B0003F0B1BCF0E944B0B18CF0E94080B15CF81
:1013C000CF70112329F08C2F0E941A0B8D2F35CF4F
:1013D0008D2F0E9453088C2F0E94260B06CFD23FE0
:1013E00051F160F4D03FB9F0D13F81F0112309F4FD
:1013F00049C0F110AFCE8C2F8F7121C0D33F11F1B6
:10140000D43FA1F78091390382FD26C08C2F8F71C4
:10141000112311F314C0112349F084E08F1508F44F
:10142000E4CE8C2F8F710E94330BDFCE95E09F1599
:1014300008F4DBCEF6CF8C2F8F711111CDCF0E9427
:101440001A0BD3CE112329F08C2F8F710E94110B10
:10145000CCCE0E940D0BC9CE112349F0CF718C2F39
:101460000E941A0B63E08C2F0E945C0FBECE81E0BD
:101470000E947A0FE1E0EF1508F0B7CE82E00E94FB
:101480007A0FB3CEF11005CF8C2F8F71A5CF0F93AC
:101490001F93CF93DF93EC01688179818A810E9449
:1014A000020C8C010E94510B0E94EF0AB801CE0180
:1014B0000E945A08DF91CF911F910F910895CF9309
:1014C000DF93EC018B819C81892B29F088819981A4
:1014D00089238F3F51F4DF91CF910895CE010E946F
:1014E000470ACE010E945906F6CFCE010E94AB06F4
:1014F0008111F4CF0E94CF0E882369F38A8188235B
:1015000051F38091390382FFE6CF82E00E947A0F87
:10151000E2CF90E080E00E944E2590E080E00E94C3
:1015200073250E94F60E0E94170F0E94AB180E94AE
:101530008F1808950E94BE0E0E94890A08950E9485
:10154000E60E0E949A0A089592959F70963091F047
:1015500058F4925F9F70923058F4803F19F030F445
:10156000883E30F481E008959A5FF4CF843FD1F350
:1015700080E00895883EB0F3813FD1F7F3CFFC01BE
:1015800083819481892B29F08081918189238F3FE8
:1015900011F480E00895808191810E94F70B0E94F0
:1015A000A40A0895A5E0B0E0E8EDFAE00C94922ECC
:1015B0002596E2E00C94AE2EA6E0B0E0E2EEFAE072
:1015C0000C94922E2696E2E00C94AE2E08950E9482
:1015D000E60A08950E94E70A80935E02089508953E
:1015E0000E94EA0A089590915E02892B0E94EA0AFD
:1015F000089590915E0289230E94EA0A08959091CD
:101600005E0289270E94EA0A08950E9468050895EB
:101610000E94050B80935D02089580E00E94080BF4
:10162000089591E001C0990F8A95EAF7892F0E94E9
:10163000080B089521E030E001C0220F8A95EAF7F7
:1016400080915D02822B0E94080B089521E030E01A
:1016500001C0220F8A95EAF7209580915D028223CE
:101660000E94080B089521E030E001C0220F8A9506
:10167000EAF780915D0282270E94080B08959091FD
:101680005D02892B0E94080B089590915D028923C9
:101690000E94080B089590915D0289270E94080B13
:1016A00008950895262F277091E001C0990F2A957B
:1016B000EAF723E0769567952A95E1F7FB01EE0FAF
:1016C000FF1FE60FF71FE40FF51F50E040E0682F03
:1016D00070E08191DF0111979B01042E02C03695C5
:1016E00027950A94E2F72170219528272923282796
:1016F0002C934F5F5F4F4330510559F70895A82F42
:10170000A77023E0969587952A95E1F7FC01EE0FE7
:10171000FF1FE80FF91FE60FF71F50E040E080E0E1
:10172000219130E00A2E02C0369527950A94E2F7FF
:1017300021703327042E01C0220F0A94EAF7822B6E
:101740004F5F5F4F4330510559F70895262F9A3068
:1017500070F4863060F4682F70E086E0989F600D2A
:10176000711D112445E452E0822F0E94520B08950E
:10177000292F9A3068F4863058F490E065E472E0DE
:1017800036E0239F800D911D11240E947F0B089548
:1017900080E00895CF92DF92FF920F931F93CF9333
:1017A000DF936C0100915D0280915E02082BC7E01F
:1017B000D0E010E0FC2EC8010C2E02C09595879554
:1017C0000A94E2F780FD0CC02197A0F7F12C8F2D31
:1017D000DF91CF911F910F91FF90DF90CF900895EF
:1017E000B6018C2F0E942C12019771F3F0CFCF938A
:1017F000DF93EC010E94CA0BBE010E942C12DF9104
:10180000CF9108951F93CF93DF93EB019091440202
:10181000992339F0CB010E94F70BDF91CF911F91F3
:101820000895882369F0CB010E94CA0B182F682FF6
:10183000CE010E94A60BBE01812F0E942C12EDCF7B
:10184000CB010E94B80B182FF6CF1F93CF93DF93D5
:10185000C0915F0216E0809160028C1304C0DF919A
:10186000CF911F910895D0E01C9FF0011D9FF00DB6
:101870001124EF59FD4F4081518162817381848130
:1018800095810E94DC0A2196C770E5CF40919102B4
:10189000509192026091930270919402809195020E
:1018A000909196020E94DC0A08951F93CF93DF93D4
:1018B00080919602807F09F049C08091930288232D
:1018C00009F444C080915F02C0916002609191026E
:1018D00070919202A0919402B0919502D62FD723D5
:1018E00016E0C81799F190E0109711F0DF3F19F456
:1018F00001968770F6CF189F9001199F300D112423
:10190000F901EF59FD4F41814713F2CF4081461352
:10191000EFCF42814111ECCF438154814A1B5B0BD5
:101920004436510528F7809196028F70806180932C
:101930009602F901EA59FD4F80818F7080618083A2
:1019400081E992E00E945F0A0E94250CDF91CF910D
:101950001F910895A1E1B0E0E0EBFCE00C948A2E29
:101960008C0185E0F801DE011D9601900D928A95AB
:10197000E1F7F801E28081E9C82E82E0D82E60917B
:101980009402709195026115710509F43CC1909122
:10199000910220919202892F82238F3F09F433C153
:1019A00040815181A380B480F0909302F501E61B41
:1019B000F70BFF2009F4F8C080919602382F307F92
:1019C000E436F10508F0B1C031116DC0FE2C2513CD
:1019D00016C0941314C0E11012C08F708061809300
:1019E00096020E94460CC6010E945F0A80919602F0
:1019F000F80185838F2D6196EAE00C94A62EA11440
:101A0000B10429F0842F85238F3F09F015C180E0B0
:101A1000F82FF170DF2E80FF3CC080915F02209193
:101A2000600236E0821315C04D875E878D859E85E6
:101A30000E94F70B292F22952F702230F0F02430CE
:101A400018F59F70F1F0F8019581907FD1F4D12CB9
:101A50001EC090E0389FF001399FF00D1124EF591E
:101A6000FD4F6181651306C06081641303C062810C
:101A7000E6120FC001968770D5CF9F7011F08823B2
:101A800031F3805E883018F3C8010E945F0AFD2C94
:101A9000B1CFEE2009F4AECF8091960281608093A1
:101AA0009602F12CA7CF251314C0941312C0E11095
:101AB00010C0F8018583C8010E945F0A86E0F80122
:101AC000A1E9B2E001900D928A95E1F70E94460CDF
:101AD00091CFC8010E94BF0A882319F1EE2009F1B5
:101AE00080919602803270F02091910230919202A2
:101AF00038872F831986BB86AA868C87CE010796E6
:101B00000E945F0A86E0F801A1E9B2E001900D921F
:101B10008A95E1F70E94550C0E94460CFF24F3942D
:101B200069CFC8010E945F0AF9CF311113C07A2D25
:101B3000B98AA88A6E2D89890E94D20A81E992E029
:101B40000E945F0A86E0F60111928A95E9F70E94E9
:101B5000460CA7CF25130FC094130DC0E1100BC086
:101B6000F8018583C8010E945F0A86E0F6011192A0
:101B70008A95E9F73FCFC8010E94BF0A882389F2FE
:101B8000EE2079F280919602803208F4BBCF20914A
:101B90009102309192023A8329831B82BD82AC82EA
:101BA0008E83CE010196ACCFE436F105F8F4FE2C1D
:101BB000EE2009F4B6CF25130BC0941309C086E0BC
:101BC000F801A1E9B2E001900D928A95E1F712CFF8
:101BD000C8010E94BF0A811195CF80919602816051
:101BE00080939602C8010E945F0A04CF7A2DB98AB9
:101BF000A88A6E2D89890E94D20A86E0F601119288
:101C00008A95E9F763CFEE2009F48BCFC8010E94D3
:101C1000BF0AF82E882309F484CF86E0F801A1E9F1
:101C2000B2E001900D928A95E1F781E992E00E947D
:101C30009B070E94550C4ACF81E08E25E9CEACE08F
:101C4000B0E0E5E2FEE00C94912E4F83588769875F
:101C50007A878B879C87CE0107960E94AA0C8823DF
:101C600069F08A859B85892B39F04F815885842FAF
:101C700085238F3F09F06BC016E05FC086E0FE0150
:101C80003796DE01119601900D928A95E1F78A85CB
:101C90009B85892B89F38F81988589238F3F61F3F9
:101CA0002091600230E0C901019687709927409128
:101CB0005F024817190671F40E949F0A1092600291
:101CC00010925F0286E0E1E9F2E0DF011D928A9561
:101CD000E9F7D2CF96E0929FD001939FB00D1124E7
:101CE000AF59BD4FFE01319601900D929A95E1F7E3
:101CF000809360020E94250CBFCF819FC0011124F8
:101D00008F599D4F0E94AA0C8823E9F0E0915F0251
:101D10001E9FF0011124EF59FD4F408151816281D6
:101D20007381848195810E94DC0A80915F0290E03A
:101D300001968770992780935F0280915F0290914E
:101D400060028913DACF2C96E3E00C94AD2E6985FE
:101D50007A858B859C850E94DC0A8ECF682F8091C6
:101D60000001909101010E94E0250895682F809163
:101D70000001909101010E94E325089580910001E6
:101D8000909101010E94E625089580919F0285951A
:101D900085958595089580919F028770089590910B
:101DA0009F02977081E009F480E008958091AA0273
:101DB00008959091AA02892B8093AA020895809594
:101DC0009091AA0298239093AA0208951092AA02D1
:101DD00008959091A902892B8093A9020895809576
:101DE0009091A90298239093A90208951092A902B4
:101DF00008958091A002089508950E94FC0E089510
:101E00009091390392FF08C09091A002981721F099
:101E10008093A0020E94FD0E08958091A002882365
:101E200029F01092A00280E00E94FD0E0895CF9349
:101E3000DF93E0910001F09101018091AA0280837B
:101E4000E0910001F091010180819091A902892B1C
:101E500080839091A002992381F0E0910001F0919C
:101E600001018081892B8083809100019091010183
:101E70000E94982581110E940D0FC0910001D09100
:101E8000010148E050E067E972E0CE010E94C22EF5
:101E9000892B59F088E0FE01A7E9B2E001900D928C
:101EA0008A95E1F7CE010E943525DF91CF91089503
:101EB00008950E94580F08959091390392FF11C020
:101EC00098E0899F90011124622B60939F020E94E9
:101ED0001A0B80919F028595859585950E94590FD3
:101EE00008950E941A0B089510929F0280E00E94AC
:101EF000590F089590919F028095892380939F02A6
:101F0000282F277091F4282F082E000C330B9217DE
:101F1000130659F09091390392FF07C08595859576
:101F200085950E94260B0E94740F089590913903A5
:101F300092FB222720F9281769F080FB92F99093F1
:101F4000390380913803909139030E94DF0F82E0BA
:101F50000E947A0F08958091390382FB882780F9C7
:101F600091E089270E94960F089581E00E94960FC4
:101F7000089580E00E94960F08956FEF7FEF90E044
:101F800080E00E94A331089590E080E00E947F31BC
:101F9000873E9E4F19F40E94C919089580E0089564
:101FA00082E090E00E947731089583E090E00E9403
:101FB0007731089584E090E00E947F310895BC015C
:101FC00084E090E00E94A3310895AB01BC018FE052
:101FD00090E00E9497310895AB01BC0183E190E04D
:101FE0000E949731089560E070E0CB010E94EC0FF1
:101FF000089560E070E0CB010E94E50F0E94F30FAE
:10200000089567EE7EEF90E080E00E94A33160E0EB
:1020100082E090E00E94853160E083E090E00E94E1
:10202000853110925E0260E074E184E090E00E94ED
:10203000A33160E086E090E00E9485316FEF87E099
:1020400090E00E94853140E050E0BA0188E090E0E5
:102050000E94973160E08DE090E00E94853140E081
:1020600050E0BA0188E190E00E94973160E087E19A
:1020700090E00E94853140E050E0BA018CE190E0B0
:102080000E94973170E060E080E290E00E94A3310E
:1020900040E050E0BA0188E190E00E94973180E092
:1020A0000E94E2190E94111A0E94F90F08950E94DD
:1020B00001100895682F8EE090E00E948531089508
:1020C0000E94A8266093BB027093BC028093BD025D
:1020D0009093BE026093B7027093B8028093B902E6
:1020E0009093BA020895089508950E947410089577
:1020F00008950E947810089586E593E10E941725BF
:102100000E9473100E94751008950E94341508955E
:10211000089508950E9488100E94891008950E94D1
:1021200072130E943A0708950E9493260E94161384
:102130000E94211A0E944F150E9495140E948F1030
:102140000E94341B80E00E948C1B0E9459150E9443
:1021500079100895AAE0B0E0E0EBF0E10C948A2E4B
:102160000E94B8148DEAA82E82E0B82E750110E006
:10217000F70101917F01812F0E9495131F5F1A3093
:1021800009F441C00817A1F38091BF0281FD0E94AC
:102190009B130E948510C82E10E0812F0E9495137A
:1021A000082FF50181915F01081731F1D02ED82653
:1021B000F12CEE24E3948D2D8E21B1F0CC20A1F0F2
:1021C000FE821F8391E0802F8E2109F490E0988792
:1021D0000E949C268160782F9A8789874E815F8133
:1021E00068858A850E946607F394EE0CF6E0FF127C
:1021F000E2CFF501319700831F5F1A3071F60E941C
:10220000601011E021C00813BFCF0E949C268C01F2
:102210008091AB029091AC0208171907A1F08FEFE3
:1022200089838A831B820E949C268160782F9D83EC
:102230008C8349815A816B818D810E94660710933E
:10224000AC020093AB0210E00E9434150E941A1EEB
:1022500011110E94EF1C0E94CD180E944D072A9672
:10226000EAE00C94A62ECF93DF930E943112EC018A
:10227000811520E59207D0F5811530E4930708F029
:1022800086C0803E910518F58D3C910508F07DC013
:10229000883A910570F4853A910508F06EC0813056
:1022A000910501F10097F1F00497E0F4D0E0C0E06F
:1022B00019C0813C9105D0F7C85AD0E0CC0FDD1F82
:1022C000CB54DE4F0990D881C02DD4640BC081154A
:1022D000904208F0A8C0C11581E0D80718F4C83EA4
:1022E000D10520F7CE01DF91CF910895803622E508
:1022F000920710F5803432E5930708F052C080321F
:10230000924508F047C0C11582E5D80708F47DC0A2
:102310002C2F2695269540E2249F900111248C2F86
:102320008370C1E0D0E002C0CC0FDD1F8A95E2F7D8
:10233000C22BD32BDD68D6CF803A22E5920760F41A
:10234000803832E5930708F441C0CF71D0E0DC2F2C
:10235000CC27C46FD06AC6CF803C42E5940708F40E
:1023600049C0C03E82E5D80708F0A0CFDC2FCC27BB
:10237000CC27DF71C06FD06AB5CFC55AD0E0C95144
:10238000DE4FC881D0E0D064ADCFD065ABCFDF7079
:10239000D06AA8CFCF71D0E0DC2FCC27C16FD06A34
:1023A000A1CF282F26952695277080E2289F90019F
:1023B00011248C2F8370C1E0D0E002C0CC0FDD1F50
:1023C0008A95E2F7C22BD32BDC688CCF282F269579
:1023D0002695277040E2249F900111248370C1E06C
:1023E000D0E002C0CC0FDD1F8A95E2F7C22BD32BC1
:1023F000DA6878CF8F710E94D312C82FD0E0DC2F1B
:10240000CC27CC27DF71D0626DCF8C2F8F710E94CB
:10241000D31235E0D695C7953A95E1F7CF709C2F4A
:10242000EC01D0695FCF8D2F8F710E94D31290E0A5
:10243000982F882788279F719C012C2BE901E3CFD7
:10244000462F7A3030F4663020F4672F0E94B52092
:10245000089590E080E008950E9420120E943311B8
:10246000089582389105B9F1B0F48133910509F4EA
:102470007DC048F48932910509F46DC08A32910516
:1024800009F47BC008958533910509F45FC0893351
:10249000910509F10895833E9105D9F138F4803E04
:1024A000910529F1823E910579F10895863E9105C5
:1024B000D9F1873E910509F43EC0843E910541F56E
:1024C0002091390321FF24C08091380384FD19C075
:1024D00087EE90E0089520913803237009F05AC0E8
:1024E0002091390323FF14C089E290E008952091E0
:1024F000380320FD38C03091390330FF09C024FF74
:1025000043C090E080E008952091380322FDF7CF8A
:1025100008952091380322FD3AC03091390330FDEF
:1025200039C024FFF5CFEDCF2091380323FFF0CF42
:1025300024FDE7CFCDCF2091380323FD2EC030916D
:10254000390331FFEECF84EE90E0089520913803F7
:1025500025FFDECFC9CF2091380325FD21C0209172
:10256000390323FFD5CF89E390E0D2CF2091380300
:1025700026FFCECF8AE290E008952091380326FF0F
:10258000C7CF81E390E0089583EE90E0089582EE56
:1025900090E0089580EE90E0089586EE90E0089532
:1025A00085E390E008959091380392FF06C0282FAC
:1025B00028712830F9F4877F846093FF06C0282FA4
:1025C00028712831F1F4877E84612091390320FF3E
:1025D00006C0382F38713830D9F4877F816021FFE9
:1025E00006C0282F28712831D1F4877E816194FD9F
:1025F000877E0895282F24712430F9F68B7F886018
:10260000DCCF282F2471243101F78B7E8861DDCF48
:10261000382F3171313019F78E7F8860E0CF282F45
:102620002171213121F78E7E8861E1CF1092340330
:102630001092350310923603109237030895CF920B
:10264000DF92EF92FF926B017C010E9434158111A1
:102650000EC00E94A826C61AD70AE80AF90AC09234
:102660003403D0923503E0923603F0923703FF90A3
:10267000EF90DF90CF9008950F931F930E94341531
:10268000882329F00E94A8261F910F9108950E9487
:10269000A826009134031091350320913603309120
:1026A0003703600F711F821F931FEECF80E00895E4
:1026B0000E94BD0F08950E94B8148FE39CE9019712
:1026C000F1F700C000000E94B81480E00E9495134A
:1026D00080FF04C00E9458130E94032708950E949F
:1026E0005B1308950E94C40F811102C00E9457100D
:1026F0000E94D00F8093BF020E94DA0F909339039B
:10270000809338030E946F130E94D50F0E94F00A35
:1027100080915D020E94050B089508950E948D131B
:10272000089508950E9491130895E82FF0E0EB5B5F
:10273000FC4F80810895089580EA8A95F1F7089505
:1027400000C008950E949C13089508950E94A51347
:102750000895A5E0B0E0EFEAF3E10C948E2E0E941C
:102760003415F82E60914F03882309F440C085E0AA
:10277000E82E8E010F5F1F4FF8018E2D11928A9562
:10278000E9F7862F90E0B8018B5B9C4F0E9467159C
:102790008823B9F080913A0390E045E050E0B80119
:1027A0008B5B9C4F0E94C22E21E02093C002892B9C
:1027B00091F4F12C0E948F068F2D2596E6E00C9463
:1027C000AA2E8091C0028823A1F3F8011192EA9405
:1027D000E9F71092C002A0913A03B0E0AB5BBC4FA6
:1027E00085E0F80101900D928A95E1F7E3CF70E062
:1027F0006B5B7C4F80913A0390E08B5B9C4F0E9417
:10280000EE150E94A613D8CFF894E82FE295EF704A
:10281000F0E031A1282F2F7081E090E001C0880FF7
:102820002A95EAF7982F9095932391A392A1892B4B
:1028300082A378940895CF93DF93C0EFD1E089917C
:102840008F3F11F00E94041481E0C53FD807B9F70B
:10285000CAEED1E089918F3F11F00E94041481E00B
:10286000C03FD807B9F7DF91CF910895B0E0A0E05D
:10287000ECE3F4E10C948C2EEC01D62E062F10E044
:10288000C80180519E4F7C01FC0180818F3F09F47B
:1028900045C0F894E82FE295EF70F0E091A18F70B9
:1028A00021E030E001C0220F8A95EAF7892F822BC0
:1028B00081A382A12095282322A378940E94A013AB
:1028C000EAEEF1E040EF51E031E0C12C21912F3FE1
:1028D00051F1A22FA295AF70B0E090968C9190E04C
:1028E0002F7002C0959587952A95E2F780FD1BC051
:1028F000832FC82A330F4E175F0741F7F7018081F6
:102900008F3F11F00E94041461E0C11001C060E02B
:102910008D2D0E94A213C00FD11FC882CDB7DEB784
:10292000E8E00C94A82E80E0E4CF80910201809131
:10293000020195E0811190E090934F0385E0891B9F
:1029400080933A030E941B148AE0E5E4F3E0DF0180
:10295000982F1D929A95E9F7EBE3F3E0DF011D92C2
:102960008A95E9F785E00E94F6140E948C06089586
:10297000AAE0B0E0EEEBF4E10C948F2E8E010F5F35
:102980001F4F8AE0F80111928A95E9F7F12C6F2D1B
:10299000C8010E943614F394F5E0FF12F8CF4AE024
:1029A00050E0B8018BE393E00E94C22E21E0009733
:1029B00009F420E0892B41F08AE0F801ABE3B3E0B1
:1029C00001900D928A95E1F760914F0370E06B5B87
:1029D0007C4F45E08BE393E00E94F714182F0E9490
:1029E000A913812B2A96E5E00C94AB2E0895CF9283
:1029F000DF92EF92FF920F931F93CF936C017B01B5
:102A0000042F222349F081E08093C3020E949C2678
:102A10009093C2028093C102C091C302C1110AC047
:102A2000C0E08C2FCF911F910F91FF90EF90DF901E
:102A3000CF9008958091C1029091C2020E94B42665
:102A4000059770F310E0A801B601C7010E94C22EDD
:102A5000892B41F0A801B601C7010E94CF2E109228
:102A6000C302DFCFC0E0FBCF8091C602811107C057
:102A70000E94342E882351F081E08093C60281E0C9
:102A80009091C602913009F080E0089582E0809331
:102A9000C6020E942F2EF3CF0E94341508950E9483
:102AA0004C15809302010E94341581110E949D15DE
:102AB00008950E943415811102C00E94A015089546
:102AC00081E09091C7029A3008F080E008950F935A
:102AD0001F93CF93DF93EC018B018091C7028A3063
:102AE000B8F4B801CE010E94EB15C82F811122C0A5
:102AF0008091C7028F3FB9F40E949C269093C50233
:102B00008093C4028C2FDF91CF911F910F91089574
:102B10008091C4029091C5020E94B426843F9140E6
:102B200000F7C0E0EFCF8F5F8093C7028A3020F7B5
:102B3000C1E0E8CF1092C702E5CF0E94B523089507
:102B40000E94B8230895B0E0A0E0E9EAF5E10C9412
:102B50008D2E7901C82F880FDD0B41155105A9F085
:102B6000FE0193E0EE0FFF1F9A95E1F7ED5FFE4F38
:102B70008181928188539D4F208130E04217530715
:102B800008F49A01A9010E94CF2ECE010E94A1242F
:102B9000D82E8823D1F001151105B9F083E0CC0FB0
:102BA000DD1F8A95E1F7FE01ED5FFE4F438150E0A6
:102BB0000417150708F4A801CD5FDE4F6C817D81F5
:102BC00068537D4FC7010E94CF2E8D2DCDB7DEB744
:102BD000E7E00C94A92E0E94DD1608950E94F416D9
:102BE0000895A4E0B0E0E7EFF5E10C94902E609139
:102BF000DF027091E0028091E1029091E2020E9476
:102C0000C32611E0643671058105910518F10E9413
:102C10003C136E5F7F4F8F4F9F4F69837A838B8307
:102C20009C8310E000E030E020E044E050E0BE0192
:102C30006F5F7F4F82E00E94A315182F882351F009
:102C40000E94A8266093DF027093E0028093E10265
:102C50009093E202812F2496E4E00C94AC2EB0E035
:102C6000A0E0E5E3F6E10C948A2E7C015B016A01A9
:102C70000E94601501E010E0882311F00AE010E0E6
:102C8000C1E0D0E0B501C701F6010995811104C08A
:102C900021960C171D072CF4CDB7DEB7EAE00C9493
:102CA000A62ECC9F9001CD9F300D300D112490E0C9
:102CB00080E045E34A95F1F70000019682179307FB
:102CC000C1F7E0CFA6E0B0E0E8E6F6E10C948A2E8A
:102CD0007B01C090F501D090F60101E010E09E016B
:102CE0002A5F3F4F50E040E070E060E080E00E94EB
:102CF000A315182F882309F448C056018FEFA81A8E
:102D0000B80A6091DB027091DC028091DD02909143
:102D1000DE020E94C326643671058105910568F1C3
:102D200005E010E09E012F5F3F4F50E040E070E073
:102D300060E081E00E94A315D82E65E070E0C50137
:102D40000E94351B11E09E81981310E01D2141F176
:102D50000E94A8266093DB027093DC028093DD0260
:102D60009093DE0285E0FE013196A6EDB2E001907F
:102D70000D928A95E1F711E013C065E070E0C5019E
:102D80000E94351B9E818913CBCF85E0F6013196D9
:102D9000DE01119601900D928A95E1F71111E2CFB3
:102DA00085E0E6EDF2E0D70101900D928A95E1F71A
:102DB000812F2696EAE00C94A62E0F931F93CF93B3
:102DC000DF93EC018B0142E656E10E942F16882327
:102DD00031F041EF55E1B801CE010E942F16DF918D
:102DE000CF911F910F9108950F931F93CF93DF936E
:102DF000C091F501D091F601CE01019625E0FB01CD
:102E0000DC0101900D922A95E1F765E070E00E94E7
:102E1000351B88836E817F81888599850091D202D8
:102E20001091D3022091D4023091D502601771071E
:102E30008207930751F06093D2027093D30280937C
:102E4000D4029093D5020E941F13DF91CF911F915E
:102E50000F9108950E948E280E9494100E949B2832
:102E600008950E94A0280E94AA100E94BA280895DE
:102E70000E9435260E9474280E947C100E942A1706
:102E80000E9431170E948A10FBCF8091E90280FFD7
:102E90000DC06091200170E0660F771F60387105EA
:102EA00070F56115710569F1862F089581FF07C0DE
:102EB0006091200184E0689FB0011124EFCF609100
:102EC000200182FD0AC08091E8028823A9F02091A8
:102ED0001F0160912001821710F088E0ECCF869FDF
:102EE000C001112433E0880F991F3A95E1F7622F52
:102EF00070E00E94612ED2CF68E070E0D5CF8FE7FE
:102F0000089581E008958091E90280FF0CC06091EE
:102F10001C0170E07595679575956795611571054C
:102F200049F1862F089581FF06C060911C0170E071
:102F300075956795F3CF60911C0182FD0BC0909150
:102F4000E7029923A1F060911B0180911C01961763
:102F500038F0682F70E06038710500F38FE708954E
:102F6000899FC001112470E00E94612EF4CF61E0BE
:102F700070E0D7CF81E008958D3C31F40E94451771
:102F800081958093ED0208958E3C19F40E944517B7
:102F9000F8CF8F3C31F40E94451781958093EC0265
:102FA0000895803D19F40E944517F8CF893D29F412
:102FB0000E9483178093EE0208958A3D21F40E94B7
:102FC00083178195F7CF8B3D31F40E94831781954C
:102FD0008093EF0208958C3D19F40E948317F8CF77
:102FE0009FE2980F983070F4815D990B21E030E0FA
:102FF00001C0220F8A95EAF78091EB02822B809321
:10300000EB0208958D3D31F48091E9028160809357
:10301000E90208958E3D21F48091E9028260F7CFA4
:103020008F3DB9F78091E9028460F1CF4091EC02C5
:103030008D3C59F48091ED0287FF0DC01092ED0296
:1030400041110BC01092E80208C08E3C81F48091BF
:10305000ED0218169CF3442381F08091EE029091CA
:10306000EF02892B09F05AC01092E70208958F3CB5
:1030700049F447FFF0CF1092EC028091ED028111EC
:10308000ECCFE0CF803D19F41416ACF3E4CF90916F
:10309000EE02893D29F41916F4F61092EE02DBCF08
:1030A0008A3D19F497FFD7CFF8CF9091EF028B3D6F
:1030B00029F497FFD0CF1092EF02CDCF8C3D19F4B9
:1030C0001916CCF3C8CF9FE2980F983090F4815D29
:1030D000990B21E030E0B90102C0660F771F8A9595
:1030E000E2F7CB0180959091EB0289238093EB026C
:1030F000B2CF8D3D31F48091E9028E7F8093E90259
:10310000AACF8E3D21F48091E9028D7FF7CF8F3DCC
:1031100009F0A1CF8091E9028B7FF0CF08950E9442
:103120009C269C019091EC028091ED02982B21F05D
:103130003093E6022093E5029091EE028091EF0237
:10314000982B21F03093E4022093E3028AEE92E080
:103150000E944025089586E0EAEEF2E0DF011D922C
:103160008A95E9F71092E8021092E7021092E902BC
:103170000895FC01828181110EC0838181110BC0F1
:103180008481811108C091E08581811101C090E0A6
:10319000892F8170089581E0FCCFA6E0B0E0E3EDD7
:1031A000F8E10C94912E86E0EAEEF2E0DE01119651
:1031B00001900D928A95E1F71092EC021092ED02C7
:1031C0001092EE021092EF028B819C81892B89F084
:1031D0008091E5029091E6020E94B426AC019091A4
:1031E000E8029923C9F1809121018417150608F49A
:1031F00040C08D819E81892B91F08091E302909156
:10320000E4020E94B426AC019091E702992309F4EC
:1032100071C080911D018417150608F479C0BE01A4
:103220006F5F7F4F8AEE92E00E94ED25811105C00D
:103230008AEE92E00E94B91881110E948F1886E0F0
:10324000FE013196AAEEB2E001900D928A95E1F767
:103250002696E3E00C94AD2E209122018AE0289F6F
:10326000900111242417350720F69F5F9093E80200
:1032700002C09F3FD1F71B81112359F00E944517CF
:103280009FEF11160CF491E0899F802D11248093FB
:10329000EC021C81112359F00E9445179FEF111673
:1032A0000CF491E0899F802D11248093ED023091E0
:1032B000EC02332309F49DCF2091ED02222309F47F
:1032C00098CF45EB3403C0011124992359F0909312
:1032D000EC0245EB240390011124332339F03093A1
:1032E000ED0287CF81E08093EC02F3CF81E0809301
:1032F000ED027FCF20911E018AE0289F90011124CA
:103300002417350708F08BCF9F5F9093E70202C028
:103310009F3FD1F71D81112359F00E9483179FEF22
:1033200011160CF491E0899F802D11248093EE02F8
:103330001E81112359F00E9483179FEF11160CF480
:1033400091E0899F802D11248093EF023091EE024D
:10335000332309F464CF2091EF02222309F45FCFD5
:1033600045EB3403C0011124992359F09093EE02E8
:1033700045EB240390011124332339F03093EF02FD
:103380004ECF81E08093EE02F3CF81E08093EF0295
:1033900046CF82E290E00E947731843289F483E262
:1033A00090E00E947731893059F484E290E00E94E5
:1033B000773191E0843009F090E0892F8170089591
:1033C00080E0FCCFCF93C82F6FEF811164E282E2DF
:1033D00090E00E9485316FEFC11169E083E290E0D7
:1033E0000E9485316FEFC11164E084E290E00E9499
:1033F0008531CF910895089585E290E00E9477315C
:10340000682F70E090E080E008950895CF93C62F74
:103410000E94051A6C2F85E290E00E948531CF91C1
:10342000089580E00E94E21960E070E0CB010E9404
:10343000061A0E9441200E94102181E00E94E21998
:1034400008950E94FB190E94FC190E94051A0E940F
:10345000C919811102C00E94111A08950895CF93CD
:10346000FB01C281CC2309F19C0122503747203156
:10347000310520F582500E942021C0E08C2FCF9191
:10348000089581E00E941A0B43E062E081E00E940F
:103490008206F3CF81E00E94260B43E062E081E0E8
:1034A0000E948206EBCF82E0F6CF8115F7E79F07F7
:1034B00089F381309747B9F3C1E0E0CF8115E7E7A1
:1034C0009E07F9F281309747C9F682E0DBCF2FEFF4
:1034D000FC01208308950E94671A089580E00895F2
:1034E000EF92FF920F931F93CF93DF93EC01062F80
:1034F0000E946E1A811110C0E881E150E331B8F4E6
:10350000F0E0E953FE4C0C94752E19828BE08A830F
:10351000602FCE010E946827CDB7DEB7E6E00C949D
:10352000AA2E89818230C1F028F4813061F08FEFBA
:103530008883EECF833099F08430C9F71A821B82DA
:103540001C821D82E5CF0E94A8260E947B2E6A83E2
:103550007B838C839D83DCCF0E94FC19F6CF7E0198
:1035600082E0E80EF11C10E0812F0E949513F70114
:1035700081937F011F5F1A30B9F7CACF89818230EA
:1035800031F08530A1F68A810E942E1AC1CF6A815E
:103590007B818C819D810E947B2E0E94061AB8CF70
:1035A0004B816A8189810E94032098278927982767
:1035B0009D838C83ADCF2C813D81322723273227F9
:1035C0004B816A8189810E942520A2CF0E944120DF
:1035D0009FCF602FCE010E946B1A9ACF0E94C1200C
:1035E000898396CF0E94C3209827892798279A839A
:1035F00089838ECF6B8170E089819A81AE014C5FA7
:103600005F4F9827892798270E94C62081CF6B811A
:1036100070E089819A81AE014C5F5F4F98278927BE
:1036200098270E94EB2074CF0E94102171CF0E9436
:10363000F11FD6CF6B8170E089819A81AE014C5F1A
:103640005F4F9827892798270E946D2061CF6B8153
:1036500070E089819A81AE014C5F5F4F982789277E
:1036600098270E94912054CF0895FC01680F791F7C
:103670008FEF91E36E177F0709F408952191822758
:1036800028E030E087FF06C0880F892721503109E4
:10369000C9F7F0CF880FFACFB0E0A0E0E2E5FBE198
:1036A0000C948C2E6C017B0164E670E088E70E942C
:1036B0007522EC0197FD12C010E000E0F601E00F6A
:1036C000F11F849164E670E00E94E122EC01892BF5
:1036D00029F40F5F1F4F0E151F0581F70E94572316
:1036E000CE01CDB7DEB7E8E00C94A82E0895E0E552
:1036F000F3E080E092E0DF019C011D922150304018
:10370000E1F7F0935705E09356058FEF9FEF909305
:103710001C0380931B0308950E94761B0E945E0584
:103720008093170380FD0FC080E8809316030E94EA
:103730006F226DE070E080E193E00E944C1B892BCA
:1037400021F080E0089580E2F0CF8091170363E0DC
:1037500070E081FD26C08DE093E00E944C1B892B18
:1037600081F76DE070E08DEF92E00E944C1B892B99
:1037700041F70E94A826605A75418F4F9F4F609372
:1037800052057093530580935405909355050E94FC
:10379000771B81E080931A0380931903109218031A
:1037A00008958AE093E0D9CF2091160336E0839FF5
:1037B000C0011124629F800D911D1124811522E00A
:1037C000920714F090E080E0805B9C4F9093570547
:1037D00080935605089520915605309157052A5437
:1037E000334040911603642F70E0C9010E944D2EB2
:1037F000481B463010F4240F311D211582E0380794
:1038000010F030E020E0205B3C4F309357052093D0
:10381000560508951F93CF93DF93162F8A3039F4FE
:1038200081E00E94831CDF91CF911F9108958D301C
:1038300011F480E0F6CFC0915605D091570596E07F
:10384000FE01A0EFB2E001900D929A95E1F7803E63
:10385000B8F086E0FE0111928A95E9F711111CC0BB
:10386000C0915605D091570546E050E0BE0180EF6B
:1038700092E00E94C22E892BE9F40E94EB1BD3CF69
:10388000F6E08F9FB0011124635E7C4F46E050E06C
:10389000CE010E94B92EE2CFE0915605F091570576
:1038A0009F012A5F3F4F2E173F07D1F280818095FD
:1038B0008193F9CFC055D340CE0125E096958795E9
:1038C0002A95E1F721E030E0A90102C0440F551F1D
:1038D0008A95E2F7CA0140911B0350911C03842B87
:1038E000952B259645E0D695C7954A95E1F702C0F8
:1038F000220F331FCA95E2F7822B932B90931C0360
:1039000080931B03BACFCF93382FE0915605F091E7
:103910005705E055F34020911603622F70E0CF0168
:103920000E944D2E281B822F332369F066E00E94EF
:10393000412EC82FC15010F4CF91089560E080E26D
:103940000E940A1CF7CF9F01280F311D211532401C
:1039500018F080E0F0E0E0E08E0F9F2F911D805B7B
:103960009C4F9093570580935605E6CFFF920F9397
:103970001F93CF93DF93EC01F62EFC010190002002
:10398000E9F78F0101501109C017D10728F0CDB711
:10399000DEB7E5E00C94AB2E6F2D89910E940A1CD6
:1039A000F3CF0E94B61C81E00E94831C08951F93F0
:1039B000CF93DF93EC01162FFE018491811104C097
:1039C000DF91CF911F910895612F0E940A1C2196CB
:1039D000F3CF0E94D71C81E00E94831C0895809140
:1039E0001A03811103C08091190308950E94A8262B
:1039F000605A75418F4F9F4F6093520570935305E6
:103A00008093540590935505809119038111EBCF54
:103A100062E070E08BEF92E00E944C1B892B19F75B
:103A200081E080931903DFCFB0E0A0E0EAE1FDE19F
:103A30000C94862E80911B0390911C03892B09F412
:103A4000BDC080911A03882309F4B8C0809118037F
:103A50008111B4C00E94EF1C20911B0330911C0304
:103A60002115310509F4AAC080E041E050E0082F9B
:103A700010E0EA01082E02C0CC0FDD1F0A94E2F725
:103A8000BE0162237323672B11F48F5FF0CF9091F7
:103A9000170390FF98C0880F880F880F8093250127
:103AA00010922801895F8093260183E08093290189
:103AB00024E630E047E050E063E271E088E70E94EE
:103AC0000F23892B09F07AC0A80125E0440F551F68
:103AD0002A95E1F78091170380FF87C0E6EFF2E0B7
:103AE00080E2DF011D928A95E9F70BEF11E087EF85
:103AF000E82E81E0F82E97E0992E88248394D8014F
:103B0000ED918D01D7016D917D01640F752F711DB0
:103B1000605B7C4FF0E0EA50FD4F30E020E0792C14
:103B2000721AA82C022E01C0AA0C0A94EAF76B01A3
:103B300090E0D6018D916D018A21A72DA91BA77058
:103B4000BA2E0A2E000CBB0B682E01C0660CBA946C
:103B5000EAF7B62CB195A195B109A770BB2701C0B2
:103B60008695AA95EAF7A62DA82B80818A2B8083BB
:103B70009F5F9830F1F62F5F3F4F31962830310527
:103B800071F681E00F3F180709F0B9CF04E610E0A5
:103B900020E230E046EF52E060E488E70E94302304
:103BA000892B61F4C095D09580911B0390911C03E3
:103BB000C823D923D0931C03C0931B03CDB7DEB712
:103BC000EEE00C94A22E8295880F807680932501DA
:103BD0009801369527953695279520932801815E83
:103BE000809326011092290163CF405B5C4F04E66D
:103BF00010E020E230E0D0CF8091190390911A03B9
:103C0000911103C091E089270895882369F062E04B
:103C100070E089EF92E00E944C1B892B19F0809193
:103C2000190308951092190380911903EBCF0E9494
:103C3000B80508950F931F9380911A03882379F193
:103C400080915005909151050E94B426C29760F072
:103C50000E949C26909351058093500560E080E07F
:103C60000E94D41B0E94171E0E94141D80911903EC
:103C70008823A9F00E94A8260091520510915305AF
:103C80002091540530915505601B710B820B930BED
:103C90006F3F7F4F8F4F9F4710F40E94FC1D1F9175
:103CA0000F910895CF93DF93EC01FB01828188236C
:103CB00009F4D2C09E0130572332310508F0B2C05A
:103CC0000E94DA0F9093390380933803FE01E1508C
:103CD000F047E232F10520F4E652FE4C0C94752ECA
:103CE0008091380381608093380393C080913903B9
:103CF0008860809339038DC0809138038260F3CF50
:103D0000809138038460EFCF809138038860EBCFD7
:103D1000809139038160EDCF809139038260E9CFD2
:103D2000809138038061DFCF809138038062DBCFE0
:103D3000809138038064D7CF0E949F0A8091380316
:103D40008068D1CF809138038C60CDCF80913903CA
:103D50008360CFCF809138038E7FC5CF80913903A8
:103D6000877FC7CF809138038D7FBDCF8091380387
:103D70008B7FB9CF80913803877FB5CF809139038E
:103D80008E7FB7CF809139038D7FB3CF8091380379
:103D90008F7EA9CF809138038F7DA5CF8091380386
:103DA0008F7BA1CF0E949F0A809138038F779BCF92
:103DB00080913803837F97CF809139038C7F99CF8F
:103DC0008091380382FB992790F921E0922790FB9C
:103DD00082F990FB83F987CF80913903982F9095D2
:103DE00091708E7F892B90FB81F983CF909138035E
:103DF000892F8F7B96FF806476CF0E949F0A9091D7
:103E00003803892F97FB87F980586DCF81E00E9496
:103E10005A1080913803909139030E94DF0F0E945D
:103E20009F0A80E0DF91CF91089580E0F0CF9091DC
:103E30003803892F8F7E94FF806155CF909138038E
:103E4000892F8E7F90FF81604ECF90913903892F0B
:103E5000877F93FF88604DCF81E0E4CFB0E0A0E0A2
:103E6000E4E3FFE10C948D2EE82FF0E0E35AF74FE6
:103E7000D490282F26952695269530E0F901E35019
:103E8000F74F0491877010E0082E02C01595079532
:103E90000A94E2F701701127F901E351F74FE4901A
:103EA000F12C082E02C0F594E7940A94E2F791E011
:103EB000E922FF24F901E352F74FC491D0E002C098
:103EC000D595C7958A95E2F7C170DD2701151105D3
:103ED00019F081EE0E94AB07E114F10419F086EEAF
:103EE0000E94AB078D2D0E944308E114F10419F0E4
:103EF00086EE0E94F8070115110519F081EE0E9467
:103F0000F807CD2B19F08CE20E944308CDB7DEB73D
:103F1000E7E00C94A92EEF92FF920F931F93CF939B
:103F2000DF93EC01162F0AE08881882309F454C03E
:103F3000813009F04EC08981813099F47E0122E000
:103F4000E20EF11C8A810E944308E7012196812F2D
:103F5000815050F3EFE9FFE03197F1F700C0000026
:103F6000F7CF823041F47E0182E0E80EF11C8A81B5
:103F70000E94AB07EACF833041F47E01E2E0EE0E0F
:103F8000F11C8A810E94F807E0CF843011F021965D
:103F9000DDCF2A81229690E080E0AE014F5F5F4F37
:103FA0002053330B2A30310548F0019778F2EFE9BE
:103FB000FFE03197F1F700C00000F7CF089FB00194
:103FC000099F700D1124C901860F971F2981EA01ED
:103FD000E4CF0E942E1FBACFCDB7DEB7E6E00C9437
:103FE000AA2E84E0089550E0440F551F9CE0699F7D
:103FF000400D511D112498E7899F400D511D11243A
:10400000CA01869608950F931F93CF93DF93843050
:10401000C8F46A30B8F44630A8F40E94F31F8C014B
:104020000E947731C82FD0E0DC2FCC27C801019641
:104030000E9477319E01282BC901DF91CF911F91FA
:104040000F91089590E080E0F8CF0F931F93CF93E6
:10405000DF93122F032F843078F46A3068F44630EF
:1040600058F40E94F31FEC01602F0E948531612FEC
:10407000CE0101960E948531DF91CF911F910F9162
:1040800008950F931F93CF93DF93D0E0C0E010E02B
:1040900019C00E94FA0521E030E08C171D0639F0A6
:1040A00034F0402F612F8C2F0E94FC059C01402F83
:1040B000612F8C2F0E9425200F5F063051F71F5F64
:1040C0001A3011F000E0E5CF2196C430D105F9F6A1
:1040D000DF91CF911F910F910895EF92FF920F936F
:1040E0001F93CF93DF93EC018A017C01E60EF71E4C
:1040F000CE018696CE15DF0529F4CDB7DEB7E6E012
:104100000C94AA2EC03E21E0D20740F40E947731E1
:10411000F80180830F5F1F4F2196EACFF8011082CC
:10412000F9CFB0E0A0E0E7E9F0E20C948C2E7C013E
:104130006A018C01060F171FEC01CE018696C0178D
:10414000D10729F4CDB7DEB7E8E00C94A82EC03E25
:1041500021E0D20740F4FE01EE19FF09EC0DFD1D30
:1041600060810E9485312196E8CF843038F46A302E
:1041700028F4463018F40E940320089590E080E06F
:10418000089580E108958AEF91E00895EF92FF92FB
:104190000F931F93CF93DF93EC018A017C01E60E0E
:1041A000F71ECE018A5F9D4FCE15DF0529F4CDB7EE
:1041B000DEB7E6E00C94AA2ECA3F21E0D20740F415
:1041C0000E947731F80180830F5F1F4F2196E9CF5E
:1041D000F8011082F9CFB0E0A0E0E1EFF0E20C943A
:1041E0008C2E7C016A018C01060F171FEC01CE0199
:1041F0008A5F9D4FC017D10729F4CDB7DEB7E8E03D
:104200000C94A82ECA3F21E0D20740F4FE01EE191B
:10421000FF09EC0DFD1D60810E9485312196E7CFDD
:10422000CF93DF93C6E0D2E060E0CE010E948531FB
:104230002196C11584E0D807B9F7DF91CF91089591
:10424000A8E0B0E0E6E2F1E20C948A2EF82E8FE0CE
:104250008F1508F46EC08FEF93E00E9477318111C3
:1042600068C006E012E0F11035C0FE0131966F0122
:1042700088E011928A95E9F77801FFEFEF1AFF0ABB
:10428000C8010E94773189831A82882309F451C0BA
:104290008130D1F4580182E0A80EB11CC7010E9400
:1042A00077318A83882309F444C09FEF980F9330B5
:1042B000F0F4780193E0E90EF11CC5010E9477311A
:1042C0008B838823B1F11C8260E0C6010E948B1FA2
:1042D0008701D2CF011594E0190759F1C8010E9456
:1042E0007731811101C0FA940F5F1F4FBCCF750168
:1042F000843051F702E010E07501EFEFEE1AFE0A8C
:10430000C5010E947731F601E00FF11F80838823F9
:1043100081F08C3741F4E2E0F0E0EC0FFD1FE00F9C
:10432000F11F1082D1CF0F5F1F4F570107301105CA
:1043300019F72896EAE00C94A62ECF93DF93EB01B1
:1043400086319C4711F50E94D60E9A81992399F0E7
:104350008A7A91E009F490E090931D03811109C0DD
:1043600089E20E94AE0E0E94170F80E0DF91CF918C
:10437000089585E3F6CF80911D03811104C089E281
:104380000E94B60EF0CF85E3FBCF81E0EFCF0F9315
:104390001F93CF93DF93C42FD22FFC0182818823F8
:1043A000C9F0409320030E949C2690931F038093A2
:1043B0001E0380E28C0F883040F4C77081E001C09A
:1043C000880FCA95EAF70E944C08DF91CF911F91A0
:1043D0000F91089510912003141332C080911E0391
:1043E00090911F030E94B4268436910548F5C0E2DF
:1043F000CD0F1D17B9F080E2810F883040F417709F
:1044000081E001C0880F1A95EAF70E945308C8306E
:1044100048F481E09D2F977001C0880F9A95EAF7C4
:104420000E944C08802F0E944308C83070F6D77055
:1044300081E001C0880FDA95EAF70E945308C5CFE2
:1044400080E28C0F883008F6C77081E001C0880FC9
:10445000CA95EAF7F2CF0F93DB0188519C4787306A
:104460009105A0F5FC01E450FE4C0C94752E06E27B
:1044700021EE41EE6AE17CE7CD010E94C72180E098
:104480000F91089507E225EE45EE6BE17CE7F4CF4E
:1044900006E221EE40EE68E17CE7EECF07E225EE92
:1044A00044EE69E17CE7E8CF06E221EE42EE6CE102
:1044B0007CE7E2CF07E225EE46EE6DE17CE7DCCF5C
:1044C00008E221E045EE6EE17CE7D6CF12968C91B2
:1044D000882319F010922003D3CF81E0D1CF10921E
:1044E000B9008CE08093B8000895B0E0A0E0EBE75D
:1044F000F2E20C94892EB82EEB010E949C266C01EE
:10450000EE24E394F12CC431D10560F025E0E22ED5
:10451000F12CCF3FDC0731F0CE0164E170E00E9466
:104520004D2E7B0184EAA82E94E8992E1092BC00AF
:10453000A092BC000E949C268C018091BC0087FF49
:104540000DC08091B900887F8830F9F08091B90062
:10455000887F8031D1F00FEF1FEF08C0C8010E94A3
:10456000B426E816F90648F70EEF1FEFCF3FDC0739
:10457000E9F2C6010E94B426C817D907B8F6C801E7
:10458000CDB7DEB7EBE00C94A52EB092BB009092B5
:10459000BC000E949C268C018091BC0087FF0AC051
:1045A0008091B900887F883111F08034A1F610E045
:1045B00000E0E5CFC8010E94B426E816F90660F7CE
:1045C000D3CF0F931F93CF93DF93EB018093BB0067
:1045D00084E88093BC000E949C268C018091BC00E2
:1045E00087FF11C02091B900287F81E090E0283238
:1045F00011F490E080E0919581959109DF91CF9140
:104600001F910F910895CF3FDC0741F3C8010E942D
:10461000B426C817D90710F78EEF9FEFEFCFB0E0A1
:10462000A0E0E5E1F3E20C948C2E6B018A017901A4
:10463000B9010E947522E6010C0D1D1DC017D1079E
:1046400011F097FF08C024E92093BC00CDB7DEB776
:10465000E8E00C94A82EB70189910E94E122EECFE8
:10466000B0E0A0E0E6E3F3E20C948C2EC62F6A01E2
:104670007901B8010E94752297FD0CC0B8018C2FFA
:104680000E94E122E601EC0CFD1CCE15DF0511F0C5
:1046900097FF08C024E92093BC00CDB7DEB7E8E05F
:1046A0000C94A82EB80189910E94E122EECF84E9F2
:1046B0008093BC0008958EE14A9B02C08150E1F7CF
:1046C0004A9BFECF08955A9880E28A95F1F75A9A4C
:1046D0000895FC013BE03A95F1F798E020E080E096
:1046E00031E040E14A95F1F7880F4A9B02C08160B2
:1046F000232742E04A95F1F7000040E14A95F1F79F
:10470000915079F790E19A95F1F799B132E03A95A5
:10471000F1F7000040E14A95F1F792FB992790F9F3
:1047200092272081920F90830895A1E0B0E0EBE9F9
:10473000F3E20C948E2E19828C017C01E60EF11CA2
:104740000E151F0541F481E09981911180E02196B9
:10475000E6E00C94AA2E0E945B23CE0101960E94F3
:104760006923F80181938F01EBCF529A5A9A0895E9
:1047700052985A9AEA9AE9E6F0E080818F7C808329
:1047800008956150770B91E001C0990F6A95EAF79F
:1047900020E031E0911108C0222391F05A9A80E282
:1047A0008A95F1F75A980895492F482339F05A9A73
:1047B000232740E24A95F1F79695ECCF5A98F9CF26
:1047C0005A98EDCFFF920F931F93CF93DF93EC0195
:1047D0008C01060F111DC017D10729F4CDB7DEB724
:1047E000E5E00C94AB2EF9900E94632368E08F2DD6
:1047F0000E94C123F0CF1F920F920FB60F92112487
:104800000F931F932F933F934F935F936F937F93D8
:104810008F939F93AF93BF93EF93FF93CF93DF93C8
:104820000F92CDB7DEB719820E945B23CE010196AD
:104830000E946923082F069506950695282F229534
:104840002570902F9570290F922F9370269526959D
:10485000920F982797708981982B09F05CC00430DB
:1048600008F059C080E18A95F1F75A9A529A82E08D
:104870008A95F1F700C05A9888E0089F80011124BA
:10488000D801AD5FBE4F1696ED91FC91179730970A
:10489000A9F06091F5017091F60114962D913C916B
:1048A0001597260F371F11968D919C911297680FBF
:1048B000791F13964C9113978C910995F801ED5F30
:1048C000FE4F6381662351F02091F5013091F6018E
:1048D00084819581820F931F0E94E2230E946323AB
:1048E00080E18A95F1F75A9852985A9A80E18A9510
:1048F000F1F7F801ED5FFE4F6081662351F02091E2
:10490000F5013091F60181819281820F931F0E94FF
:1049100095230E945B230F90DF91CF91FF91EF9140
:10492000BF91AF919F918F917F916F915F914F91C7
:104930003F912F911F910F910F900FBE0F901F90DD
:1049400018950F931F93CF93DF93EC0104970CF00E
:104950004CC0F894529A5A9885E08A95F1F7000075
:104960009C2F969595708C2F8570980F892F83704A
:104970009695969523E0CC0FDD1F2A95E1F7980FC9
:104980008E01092B0E94632300C068E0802F0E94E3
:10499000C12380E18A95F1F752985A9A4A9B1EC02A
:1049A00087E090E04A991CC0FE01ED5FFE4F6381F5
:1049B0006623F9F02091F5013091F601848195810B
:1049C000820F931F0E949523811113C0529A5A9A05
:1049D0007894DF91CF911F910F91089500C0DECFA1
:1049E000019729F4529A5A9A789480E0F2CF00C045
:1049F000D9CF0E945B2380E28A95F1F75A98529AA8
:104A000080E18A95F1F7CD5FDE4F6881662351F032
:104A10002091F5013091F60189819A81820F931FCF
:104A20000E94E2230E946323789481E0D2CF909386
:104A30000F0280930E02089590932703809326031C
:104A400008950E943415811103C0809121030895B7
:104A5000E0912603F0912703309729F00190F0812F
:104A6000E02D0995089580E00895E0912603F091E6
:104A70002703309721F00280F381E02D09950895F6
:104A8000E0912603F0912703309739F022E0DC0112
:104A90002C930480F581E02D09950895A3E0B0E002
:104AA000E4E5F5E20C94922E209124033091250345
:104AB00028173907A1F09093250380932403E091F0
:104AC0002603F0912703309751F023E029839B833D
:104AD0008A830680F781E02DCE0101960995239601
:104AE000E2E00C94AE2EA3E0B0E0E9E7F5E20C942E
:104AF000922E209122033091230328173907A1F029
:104B00009093230380932203E0912603F0912703DF
:104B1000309751F024E029839B838A830680F781B4
:104B2000E02DCE01019609952396E2E00C94AE2E7D
:104B30009C012E5F3F4FAC01485F5F4F80E0241720
:104B4000350709F40895F90191919F019923B9F36B
:104B50008F5FF5CF662349F0FC01329608962191CC
:104B6000261729F0E817F907D1F780E0089581E0CA
:104B700008959C01FC0132969FEF80E04191461719
:104B800051F09F3F19F4411101C0982F8F5F86307B
:104B9000A9F79F3F09F40895290F311D97FD3A9514
:104BA000F90162830895FC0132960896219126133B
:104BB00003C0DF0111971C92E817F907B9F70895B0
:104BC0000E94B92508950E94D3250895029626E0F3
:104BD000FC0111922A95E9F7089546E050E00E9401
:104BE000C22E21E0892B09F420E0822F0895089538
:104BF0000E94F7250895811106C081E08093280363
:104C00000E94F825089582E0F9CF83E0809328037D
:104C10000E94F82508950E94FB25089581E0809365
:104C200028030E94F82508950E940E2608950895ED
:104C300008950E9418260895089508950E94172641
:104C40000895CF930E941C260E94B8140E941D262E
:104C5000C0E08C2F0E949513811105C0CF5FCA3030
:104C6000C1F7CF91089581E0FCCF85B7806885BFFB
:104C700085B7806885BF08951F921FB61F921124C3
:104C80008F939F93AF93BF9380912903811113C09A
:104C90008091580590915905A0915A05B0915B05F6
:104CA0004196A11DB11D8093580590935905A0937D
:104CB0005A05B0935B05BF91AF919F918F911F9063
:104CC0001FBE1F90189580916005843031F10E94BD
:104CD00007071092290388E190E020E40FB6F894CA
:104CE000A895809360000FBE2093600083B7817FFA
:104CF000846083BF83B7816083BF7894889583B7CE
:104D00008E7F83BF0FB6F894A8958091600088616C
:104D100080936000109260000FBE08950E949F0A69
:104D20000E940E07089582E084BD93E095BD9AEF3E
:104D300097BD80936E0008952FB7F8948091580521
:104D400090915905A0915A05B0915B052FBF089528
:104D50002FB7F894609158057091590580915A05C4
:104D600090915B052FBF08959C014FB7F8948091F7
:104D7000580590915905A0915A05B0915B054FBF18
:104D8000821B930B0895CF92DF92EF92FF922FB781
:104D9000F894C0905805D0905905E0905A05F090CD
:104DA0005B052FBFA7019601261B370B480B590B3C
:104DB000CA01B901FF90EF90DF90CF9008957894E9
:104DC0001F921FB61F9211248F939F93AF93BF938F
:104DD0008091580590915905A0915A05B0915B05B5
:104DE0000196A11DB11D8093580590935905A0937C
:104DF0005A05B0935B05BF91AF919F918F911F9022
:104E00001FBE1F90189587E797E79093010880933E
:104E1000000888E19AE00FB6F894A89580936000A6
:104E20000FBE90936000FFCF88E19AE00FB6F89430
:104E3000A895809360000FBE90936000FFCF809193
:104E4000320308959B01BA01909160059430E9F412
:104E50008F708093E9009FEF8091E800915085FD6D
:104E600006C085ED8A95F1F700009111F5CF80918C
:104E7000E80085FF0AC050E040E0C9010E945929BE
:104E80008091E8008E778093E800089543E050E039
:104E9000BC0184E00E942227089546E050E0BC0156
:104EA00084E00E9422270895CF93DF93EC0148E02D
:104EB00050E0BC0181E00E94222788E0FE01AAE2C6
:104EC000B3E001900D928A95E1F7DF91CF910895BB
:104ED000603231F440E250E0BC0182E00E942227BF
:104EE000089580915F05811109C00E94382B0E94AE
:104EF000952B8091E20084608093E20008951092E7
:104F00005F0508950E940E26089560915C0581E07A
:104F1000611101C080E00E9405260895909160050E
:104F200081E0943009F080E060915C050E940B26DE
:104F3000089542E061EC81E00E94B42A42E261EC13
:104F400084E00E94B42A42E261EC82E00E94B42A2A
:104F500042E260EC83E00E94B42A9091600581E017
:104F6000943009F080E060915C050E94FB25089573
:104F700080916205833009F463C030F48130E1F13F
:104F8000823009F4A0C008958A3009F48CC08B30B7
:104F900009F471C0893009F052C0809161058132F5
:104FA00009F04DC08091650590916605009719F054
:104FB000029709F044C08091E800877F8093E80061
:104FC0008091E80082FF37C09091F3008091F20059
:104FD000029731F48091F100813011F0863021F494
:104FE0008091F100809332038091E8008B77809369
:104FF000E8000E94E82A23C080916105813AF9F413
:105000008091E800877F8093E8008091650590910A
:105010006605892B61F468E08AE293E070E00E9403
:10502000F7298091E8008B778093E800089560E08D
:1050300090E080E0F3CF809160058111C1CF0895A9
:1050400080916105813AD9F7809165059091660557
:10505000892BA9F78091E800877F8093E8008091F1
:10506000E80080FFFCCF809132018093F1008091B5
:10507000E8008E77BCCF80916105813201F7809185
:10508000650590916605892BD1F68091E800877FB0
:105090008093E8000E94E82A8091630580933201A2
:1050A0000E949F0A089580916105813241F68091A6
:1050B000E800877F8093E8000E94E82A80916405D9
:1050C00080933303089580916105813A09F0B7CF49
:1050D0008091E800877F8093E8008091E80080FF5E
:1050E000FCCF80913303C1CF84B7877F84BF0FB6D5
:1050F000F894A89580916000886180936000109278
:1051000060000FBE80E890E00FB6F89480936100D5
:10511000909361000FBE0E94142608950E94382BC0
:105120000E94952BE2EEF0E0808184608083789489
:105130000E94142E08958AE291E00E941C25089591
:1051400080916005853031F480916005853019F0DB
:105150000E948E2608950E94632680915E05882312
:1051600099F30E942126882379F30E9443290E9403
:105170009F0AEACFA0E2B0E0E0ECF8E20C94922EB5
:1051800080916005843009F583E08093E900809187
:10519000E80082FF1AC08091E80090E085FF09C016
:1051A00050E040E060E270E0CE0101960E94A82944
:1051B00091E08091E8008B778093E800992329F0B3
:1051C00060E2CE0101960E94701AA096E2E00C9473
:1051D000AE2E0E94EC280895292F33272330310565
:1051E00021F168F42130310509F443C02230310542
:1051F00009F444C090E080E030E020E026C0213295
:10520000310551F122323105A9F76330710590F76C
:10521000FB01EE0FFF1FEE5FFD4F208131816150DA
:105220007E4FFB01808190E010C09927813091056D
:1052300081F0009729F00297E9F6EDE0F9E002C06D
:10524000EFE2F9E0849190E09F01FA01318320833D
:105250000895EDE1F9E0F6CF6330710558F6660F79
:10526000771FFB01E85FFD4F2081318189E090E0ED
:10527000ECCF82E190E02EE839E0E7CF8BE590E0DB
:1052800023E339E0E2CF80E189BD82E189BD09B441
:1052900000FEFDCF8091D8008F7D8093D800809153
:1052A000E00082608093E0008091E00081FDFCCF0F
:1052B0000895AF92BF92CF92DF92FF920F931F9308
:1052C000CF93DF936C01EB018A010E94072BF82E2C
:1052D000811123C00115110539F0F80180819181F8
:1052E000C81BD90BC80ED91EB12CA12C2097A9F030
:1052F0008091E80085FD22C08091E8008E77809340
:10530000E80001151105A1F0F80180819181A80E36
:10531000B91EB182A08285E0F82E8F2DDF91CF914A
:105320001F910F91FF90DF90CF90BF90AF900895A5
:105330000E94072B8823D1F2F82EEFCFF60181913E
:105340006F018093F1002197FFEFAF1ABF0ACECF14
:10535000AF92BF92CF92DF92FF920F931F93CF93A2
:10536000DF936C01EB018A010E94072BF82E81115B
:1053700023C00115110539F0F80180819181C81B06
:10538000D90BC80ED91EB12CA12C2097A9F0809161
:10539000E80085FD22C08091E8008B778093E800CB
:1053A00001151105A1F0F80180819181A80EB91EA7
:1053B000B182A08285E0F82E8F2DDF91CF911F91D1
:1053C0000F91FF90DF90CF90BF90AF9008950E9413
:1053D000072B8823D1F2F82EEFCF8091F100F60150
:1053E00081936F012197FFEFAF1ABF0ACECFFC0167
:1053F000809167059091680586179707A0F0611561
:10540000710529F49091E8009E779093E80090E070
:105410006115710551F4911108C08091E80082FF77
:1054200034C080E00895BC01F2CF809160058823EC
:10543000C1F18530C1F18091E80083FD30C08091D9
:10544000E80082FDEACF8091E80080FFE1CF809103
:10545000F3002091F200382F6115710519F0283002
:10546000310558F091E02830310509F090E02091A5
:10547000E8002E772093E800CBCF81918093F10054
:10548000615071092F5F3F4FE7CF809160058823FE
:1054900041F0853041F08091E80083FFBECF81E08C
:1054A000089582E0089583E00895FC0180916705E6
:1054B0009091680586179707A0F06115710529F48A
:1054C0008091E8008E778093E80090E06115710587
:1054D00051F4911108C08091E80082FF35C080E04E
:1054E0000895BC01F2CF809160058823C9F1853011
:1054F000C9F18091E80083FD31C08091E80082FD10
:10550000EACF8091E80080FFE1CF8091F300209105
:10551000F200382F6115710519F02830310558F067
:1055200091E02830310509F090E08091E8008E7715
:105530008093E800CBCF84918093F1003196615045
:1055400071092F5F3F4FE6CF80916005882341F0BE
:10555000853041F08091E80083FFBDCF81E0089560
:1055600082E0089583E00895982F973028F08F7097
:105570008093E90081E008959093E900242F762F2D
:1055800050E0981731F07091EC002091ED005091AF
:10559000F00021FD02C09F5FE8CF3091EB003E7F1D
:1055A0003093EB003091ED003D7F3093ED00309172
:1055B000EB0031603093EB007093EC002093ED0032
:1055C0005093F0002091EE0027FDE5CF80E0089594
:1055D0008091610587FF13C08091E80082FF06C0BB
:1055E0008091E8008B778093E80004C0809160058B
:1055F0008111F2CF0895809160058823D9F38091BD
:10560000E80080FFF8CF8091E8008E77ECCF209102
:10561000E4003091E50095E6A9012091EC00822F8D
:10562000817020FF06C08091E80080FF06C080E006
:1056300008952091E80022FD1AC08091600588231A
:1056400089F0853089F08091EB0085FD0FC02091B5
:10565000E4003091E50042175307F9F29150E1F66A
:1056600084E0089582E0089583E0089581E008953C
:105670000E94A72B0E94AF2BE0EEF0E080818160BA
:105680008083E8EDF0E080818F77808319BCA7EDFF
:10569000B0E08C918E7F8C9380818F7E808310927E
:1056A0005F0508950F931F93CF93DF930E94A72B5D
:1056B0000E94AF2BC8EDD0E088818F7788838881E6
:1056C0008068888388818F7D888319BC10926005EB
:1056D00010925C0510925E0510925D0500EE10E0E0
:1056E000F80180818B7F808388818160888342E09C
:1056F00060E080E00E94B42AE1EEF0E080818E7FDD
:105700008083E2EEF0E08081816080838081886028
:105710008083F80180818E7F808388818061888387
:10572000DF91CF911F910F910895E8EDF0E0808116
:105730008F7E8083E7EDF0E080818160808384E06C
:1057400082BF81E080935F050E94522B0895E8EDAF
:10575000F0E080818E7F80831092E20008951092A5
:10576000DA001092E10008951F920F920FB60F9287
:1057700011242F933F934F935F936F937F938F9356
:105780009F93AF93BF93EF93FF938091E10082FFCC
:105790000BC08091E20082FF07C08091E1008B7F07
:1057A0008093E1000E94132E8091DA0080FF19C0DF
:1057B0008091D80080FF15C08091DA008E7F8093A1
:1057C000DA008091D90080FF96C080E189BD82E136
:1057D00089BD09B400FEFDCF81E0809360050E9481
:1057E00071278091E10080FF19C08091E20080FF65
:1057F00015C08091E2008E7F8093E2008091E200EC
:1058000080618093E2008091D80080628093D8000C
:1058100019BC85E0809360050E9485278091E10096
:1058200084FF2BC08091E20084FF27C080E189BD06
:1058300082E189BD89B5982F917080FFFBCF80915F
:10584000D8008F7D8093D8008091E1008F7E809377
:10585000E1008091E2008F7E8093E2008091E2007F
:1058600081608093E20080915C05882309F449C03F
:1058700084E0809360050E948E278091E10083FF81
:1058800029C08091E20083FF25C08091E100877FDD
:105890008093E10082E08093600510925C05809126
:1058A000E1008E7F8093E1008091E2008E7F809303
:1058B000E2008091E20080618093E20042E060E0DB
:1058C00080E00E94B42A8091F00088608093F0000C
:1058D0000E948227FF91EF91BF91AF919F918F918D
:1058E0007F916F915F914F913F912F910F900FBEDC
:1058F0000F901F90189519BC109260050E947F2789
:1059000070CF8091E30087FD93E090936005B3CF63
:105910001F920F920FB60F9211242F933F934F9324
:105920005F936F937F938F939F93AF93BF93CF9327
:10593000DF93EF93FF93D091E900DF708091EC004B
:10594000C82FC17080FDC0E81092E9008091F0007E
:10595000877F8093F00078940E94CC2C1092E9000D
:105960008091F00088608093F000CD2BCF70C093C1
:10597000E900FF91EF91DF91CF91BF91AF919F919E
:105980008F917F916F915F914F913F912F910F90E8
:105990000FBE0F901F901895AAE2B0E0E2EDFCE276
:1059A0000C94912E81E695E02091F100FC01219369
:1059B000CF01F5E089369F07B9F70E94B82780919B
:1059C000E80083FF1EC180916105909162059A30C5
:1059D00008F017C1E92FF0E0ED5FFD4C0C94752E37
:1059E000803899F0823809F00CC1809165058F707C
:1059F000873008F006C18093E9008091EB0085FBB9
:105A0000882780F91092E90006C080915D05909189
:105A10005E05911182609091E800977F9093E80075
:105A20008093F1001092F1008091E8008E77E5C03C
:105A3000882309F4D3C0823009F0E3C08091630564
:105A40008111D6C0809165058F702FEF280F263009
:105A500008F0D7C08093E9002091EB0020FFC8C078
:105A6000933031F48091EB0080628093EB00C0C0F2
:105A70009091EB0090619093EB0021E030E001C049
:105A8000220F8A95EAF72093EA001092EA008091AB
:105A9000EB008860EACF8111B4C0109163051F77D5
:105AA0008091E3008078812B8093E3008091E8006F
:105AB000877F8093E8000E94E82A8091E80080FFB9
:105AC000FCCF8091E30080688093E30082E01111B5
:105AD00083E08093600595C08058823008F091C0C3
